:020000040800F2
:10000000E0A801209D010008C90C00082D09000886
:10001000750C00089F030008954E000800000000C2
:10002000000000000000000000000000A10F000818
:1000300041050008000000007D0D00089110000837
:10004000B7010008B7010008B7010008B7010008B0
:10005000B7010008B7010008B7010008B7010008A0
:10006000B7010008B7010008B7010008B701000890
:10007000B7010008B701000821040008B701000813
:10008000B7010008B7010008B7010008B701000870
:10009000B7010008B7010008B7010008B701000860
:1000A000B7010008B7010008B7010008B701000850
:1000B00085110008B7010008B7010008B701000862
:1000C000B7010008B7010008B7010008B701000830
:1000D000B7010008D5120008B70100083513000861
:1000E000B7010008B7010008B7010008B701000810
:1000F000B7010008B7010008B7010008B701000800
:10010000B7010008B7010008B7010008B7010008EF
:10011000B7010008B7010008B70100088D110008F9
:10012000B7010008B7010008B7010008B7010008CF
:10013000B7010008B7010008B7010008B7010008BF
:10014000B7010008B7010008B7010008B7010008AF
:10015000B7010008B701000859040008B7010008FA
:10016000B7010008B7010008B7010008B70100088F
:10017000B70100086D0D0008B7010008B7010008BD
:10018000B7010008B7010008DFF80CD000F08AF8CA
:10019000004800470D710008E0A80120064880478C
:1001A00006480047FEE7FEE7FEE7FEE7FEE7FEE75C
:1001B000FEE7FEE7FEE7FEE71D11000889010008E3
:1001C00040EA01039B0703D009E008C9121F08C0D9
:1001D000042AFAD203E011F8013B00F8013B521E59
:1001E000F9D27047D2B201E000F8012B491EFBD2D0
:1001F00070470022F6E710B513460A460446194632
:10020000FFF7F0FF204610BD421C10F8011B00292B
:10021000FBD1801A704730B504460020034600E049
:100220005B1C934203D2E05CCD5C401BF8D030BD38
:10023000034611F8012B00F8012B002AF9D11846CA
:1002400070472DE9F05F0546002092469B468846A0
:100250000646814640241BE0284641464746224642
:1002600000F041F853465A46C01A914110D3114646
:100270001846224600F028F82D1A67EB01084F4671
:1002800022460120002100F01FF817EB00094E4123
:10029000201EA4F10104DFDC484631462A464346CD
:1002A000BDE8F09F064C074D06E0E06840F0010312
:1002B00094E8070098471034AC42F6D3FFF768FF84
:1002C000602D0308802D0308202A04DB203A00FA61
:1002D00002F1002070479140C2F1200320FA03F39D
:1002E000194390407047202A04DB203A21FA02F09B
:1002F0000021704721FA02F3D040C2F12002914060
:10030000084319467047000070B505460C4608487A
:100310000560204600F00EF800BF05480068002880
:10032000FBD100214FF0804000F06BFF70BD00005A
:100330004C0000203EB5044600214FF0804000F004
:1003400060FF00220121880700F078FF022C02D113
:100350000B20019004E0012C02D142F6DF600190F5
:100360000520ADF800000020ADF80800ADF802004F
:1003700069464FF0804000F06BFF0121880700F0D4
:100380003DFF0121880700F02DFF01221146900753
:1003900000F054FF0121880700F033FF3EBD00BF8D
:1003A000FEE708B525208DF8000000208DF801003B
:1003B00003208DF8020001208DF80300684600F04C
:1003C00085FC46208DF8000001208DF801000320F7
:1003D0008DF8020001208DF80300684600F076FCDD
:1003E00027208DF8000000208DF8010002208DF8F4
:1003F000020001208DF80300684600F067FC0E2023
:100400008DF8000001208DF8010003208DF8020016
:1004100001208DF80300684600F058FC08BD00007C
:1004200010B50A490A4800F059F868B10749084868
:1004300000F02EF80021064800F044F8012240F2B6
:100440002661044800F0FBFF10BD0000008000188A
:10045000586002400048004010B50A490A4800F0C0
:100460003DF868B10749084800F012F80021064835
:1004700000F028F8012240F22661044800F0DFFF76
:1004800010BD000000800028B86402400010014048
:100490000246094B9A4201D2084801E0064810384A
:1004A00001F000531BB1064B0B40C36002E0044B4C
:1004B0000B408360704700001064024000600240FF
:1004C0007D0F7D0F21B1026842F00102026003E05E
:1004D000026822F0010202607047000070B5024617
:1004E000002000240025124EB24201D2114B01E03F
:1004F0000F4B103B104E0E4036B11E2606EAD1249B
:10050000166806EA040502E0566906F0800501F067
:1005100000560EB15C6800E01C68084E344004EAE6
:10052000010616B10DB1012000E0002070BD0000F1
:1005300010640240006002403C0F3C0F7D0F7D0FB5
:100540007047000008B500F021FB0748074B084A38
:1005500000210090074801F053FC03E004490548DE
:1005600002F0BCFCFAE7000054000020C0000020AC
:1005700000600120545A012070B5B2B04848309054
:100580004FF4807031904749002006F041F804464E
:100590001CB1214644A004F07FFC49A24AA101A855
:1005A00004F08AFC01A921A806F01CF904461CB13C
:1005B000214646A004F070FC00204D498881488106
:1005C0004CA004F069FC51A004F066FC00BF2AA90D
:1005D00021A806F028FA044614B99DF8B10000B924
:1005E0004DE09DF8B1002E2800D1F0E79DF8B00055
:1005F000102843D00DF1B100FFF706FEC6B2052E5C
:100600003BDBF11E0DF1B102881803224AA1FFF76E
:1006100002FE88BB3098007808B1309801E00DF1F7
:10062000B10005463249498901EB810202EB811193
:10063000424A02EB810101F114002946FFF7F8FD5F
:100640002B49498901EB810202EB81113B4A02EB04
:1006500081012A980861264841892A4638A004F079
:100660001BFC23484089401C214948810846408999
:10067000B0F5967F01DD02E0FFE700BFA7E700BF0E
:1006800022A004F009FC1A48408918B92EA004F0F1
:1006900003FC03E0164840891549C88132B070BD9B
:1006A000D048012074440120B9D2D4D8CEC4BCFEB5
:1006B000CFB5CDB3CAA7B0DC20282564290D0A0028
:1006C0002F4D503300000000257300004F70656E01
:1006D00020526F6F74204469726563746F72792061
:1006E0004572726F7220282564290D0A00000000EF
:1006F000F00000204D503320C4BFC2BCD6D0B5C4DA
:100700004D5033CEC4BCFE3A0D0A00002F2A2A2ACF
:100710002A2A2A2A2A2A2A2A2A2A2A2A2A2A2A2A39
:100720002A2A2A2A2A2A2A2A2A2A2A2A2A2A2A2A29
:100730002A2A2A2A2F0D0A004D50330004010020D6
:1007400025642D25730D0A00C3BBD3D0D4DAB8F9C4
:10075000C4BFC2BCCFC2D5D2B5BD204D503320CE10
:10076000C4BCFE0D0A000000F0B50A4600210023BB
:10077000002400BF3DE0012505FA01F3156805EAF4
:1007800003049C4234D105684F000326BE40B543A4
:10079000056015794E00B54006683543056015794A
:1007A000012D02D01579022D16D185684F00032640
:1007B000BE40B543856055794E00B54086683543E7
:1007C0008560456801268E40B54345604568967949
:1007D0008E40B6B235434560C5684F000326BE4023
:1007E000B543C560D5794E00B540C6683543C56090
:1007F000491C1029BFD3F0BDF0B5002300244D07DC
:10080000ED0E02FA05F3CE1000F1200555F8265042
:100810004E07F70E0F26BE40B543CF1000F120065D
:1008200046F82750CE1000F1200555F8265045EA2D
:100830000304CE1000F1200545F82640F0BD00006D
:1008400070B504F0D5FD05460448C089B5FBF0F14C
:1008500000FB115084B2204670BD0000F000002063
:1008600001464869806880B2704708B50146D1F8F2
:10087000CC00006800900098C0F3414008BD0246DB
:1008800002F29B30405C7047024602F5547050F80B
:100890002100704770B504460E4600250021C4F8BB
:1008A000101300BF0BE0002104F5457040F825103F
:1008B0003C3040F825103C304155681CC5B20F2D26
:1008C000F1DB0821A4F8B2133146204603F012FBF5
:1008D000204602F019FF204602F0D8FD01212046F3
:1008E00003F074FB204602F06AFE204602F065FF2A
:1008F000002070BD0146D1F81003704710B50446C2
:10090000204603F0D6FA002010BD70B504460D460F
:10091000002104F29B304155113000EB451041613C
:100920002946204603F074F970BD000009A100209B
:100930000BE00A5C124B9A8000BF114A128802F049
:100940004002002AF9D0421CD0B22A28F1D300BFBD
:10095000FEE700000D0A456E7465722048617264FE
:100960004661756C745F48616E646C65722C2053CF
:10097000797374656D2048616C742E0D0A00000057
:100980000010014000B587B00121880500F0F8F99A
:100990000121084600F0F4F90121102000F020FAAE
:1009A000072209215448FFF727FF07220A2152484E
:1009B000FFF722FF00208DF81A0001208DF81B00A0
:1009C00002208DF818000002059002208DF8190011
:1009D00005A94948FFF7C8FE02208DF8180040021B
:1009E000059005A94448FFF7BFFE4FF4E1300190A0
:1009F0000020ADF80800ADF80A00ADF80C00ADF825
:100A000010000C20ADF80E0001A93C4800F03CFDA0
:100A1000012240F22551394800F011FD01213748EB
:100A200000F0C1FC4021354800F0B4FC01228021D7
:100A3000324800F0C4FC01213148FFF743FD012199
:100A4000480500F09DF90121022000F099F90121EB
:100A5000880400F0B5F907220A212A48FFF7CCFEE6
:100A600007220B212748FFF7C7FE00208DF81A0048
:100A700001208DF81B0002208DF81800400205901F
:100A800002208DF8190005A91E48FFF76DFE02200F
:100A90008DF818008002059005A91A48FFF764FE3A
:100AA0004FF4E13001900020ADF80800ADF80A00E5
:100AB000ADF80C00ADF810000C20ADF80E0001A947
:100AC000114800F0E1FC012240F225510E4800F0EF
:100AD000B6FC01210C4800F066FC40210A4800F0F9
:100AE00059FC01228021084800F069FC01210748D7
:100AF000FFF7E8FC07B000BD000002400010014015
:100B0000B8640240000402400048004058600240BF
:100B10002DE9F04100242CE02046641C1A4931F8EC
:100B200010702046641C31F8105005F4004080B16C
:100B3000C5F30E052046641C31F8106003E0F8B2DE
:100B4000314606F037FF2800A5F101018DB2F6D13C
:100B50000EE008E02046641C0B4931F81060F8B242
:100B6000314606F027FF2800A5F101018DB2F1D131
:100B700000BFB4F5177FCFD906F0E8FE08B1BDE895
:100B8000F08100BFFBE70000247A000810B506F0F2
:100B9000DDFE18B11AA004F07FF910BD06F0ACFD1F
:100BA00006F0A5FE06F019FE082813D2DFE800F0D3
:100BB0000406080A0C0E121017A40DE018A40BE08E
:100BC00019A409E01AA407E01BA405E01CA403E093
:100BD0001DA401E01EA400BF00BF21461EA004F01A
:100BE0005BF9C82022494870487806F06EFE002361
:100BF0001A461946184606F029FE00BFCDE7000048
:100C0000C3BBD3D0BCECB2E2B5BD4D5033C4A3BF1F
:100C1000E9D3B2BCFE0D0A0056533130303100002A
:100C200056533130313100005653313030320000EC
:100C300056533130303300005653313035330000D5
:100C400056533130333300005653313130330000C6
:100C5000756E6B6E6F77000020BDE2C2EBD0BEC632
:100C6000ACD0CDBAC5203A2025730D0A0000000093
:100C7000F000002000BFFEE710B58AB006F0DAFDF4
:100C8000E0B109AB202201A90D4805F0E7FD099864
:100C900010B901200AB010BD0A48406809990844FB
:100CA0000849486006F088FD002404E001A9085DB9
:100CB00006F0A4FE641C09988442F7D30020E9E7FB
:100CC000A8460120F00000207047000070B5002108
:100CD00000230F22C4781CB3174C246804F4E0648A
:100CE000C4F5E064C4F30721C1F10404E3B20A418E
:100CF00044789C40E1B28478144021430C07210ED3
:100D00000E4C05786155047804F01F050124AC40B1
:100D100005786D11AD0005F1E025C5F8004109E049
:100D2000047804F01F050124AC40054D06787611C7
:100D300045F8264070BD00000CED00E000E400E046
:100D400080E100E002490143024A1160704700005F
:100D50000000FA050CED00E0024A0A400243024B93
:100D60001A60704780FFFF1F08ED00E010B50248D1
:100D700001F01AFF10BD0000545A01207047000016
:100D800029B1064A12680243044B1A6004E0034A80
:100D900012688243014B1A607047000030380240ED
:100DA00029B1064A12680243044B1A6004E0034A60
:100DB00012688243014B1A607047000034380240C9
:100DC00029B1064A12680243044B1A6004E0034A40
:100DD00012688243014B1A6070470000403802409D
:100DE00029B1064A12680243044B1A6004E0034A20
:100DF00012688243014B1A60704700004438024079
:100E0000F0B5002100220024022500260223324FE3
:100E10003F6807F00C0121B1042905D0082937D11A
:100E200005E02E4F076036E02D4F076033E02A4F74
:100E30003F1F3F68C7F38056274F3F1F3F6807F0AB
:100E40003F036EB1264FB7FBF3F7DFF88CC0ACF170
:100E5000040CDCF800C0CCF3881C07FB0CF40CE09D
:100E60001E4FB7FBF3F7DFF870C0ACF1040CDCF8F1
:100E700000C0CCF3881C07FB0CF4174F3F1F3F68E2
:100E8000C7F301477F1C7D00B4FBF5F7076002E064
:100E9000124F076000BF00BF0F4F3F6807F0F0011F
:100EA0000909104F7A5C0768D74047600A4F3F68CE
:100EB00007F4E051890A0B4F7A5C4768D740876096
:100EC000054F3F6807F46041490B064F7A5C47685D
:100ED000D740C760F0BD0000083802400024F4008D
:100EE00000127A001100002030B10749096841F072
:100EF0000401054A116005E00349096821F0040175
:100F0000014A1160704700000008065001460020A9
:100F1000034A12680A400AB1012000E0002070472D
:100F20000408065001480068704700000808065091
:100F300021B1028842F04002028004E002884FF6AC
:100F4000BF731A40028070470246002013890B408D
:100F50000BB1012000E000207047014688897047EE
:100F60008181704710B50022028802F441520B883B
:100F70004C8823438C882343CC8823430C89234308
:100F80004C8923438C892343CC8923431A43028011
:100F9000838B4FF2FF74234083830B8A038210BD3F
:100FA000704700000CB500200190009034480068A4
:100FB00040F480303249086000BF3148006800F4D6
:100FC000003000900198401C0190009818B90198D9
:100FD000B0F5A04FF1D12A48006800F4003010B1FC
:100FE0000120009001E0002000900098012846D1E7
:100FF00023484030006840F080502149403108606B
:101000002048006840F440401E4908601C480830F1
:1010100000681B49083108600846006840F4004039
:1010200008600846006840F4A05008601648091F90
:101030000860081F006840F08070091F086000BF4A
:101040000F48006800F000700028F9D040F20570E9
:101050000E4908600A480830006820F0030008497B
:10106000083108600846006840F00200086000BFD0
:1010700003480830006800F00C000828F8D10CBDC7
:10108000003802400070004008544007003C024015
:1010900010B500F001F810BD10B51B48006840B154
:1010A00019480068401E1849086010B90120174906
:1010B0000870002408E004EB4401154A02EB8100AB
:1010C00004F0A5FA601CC4B2042CF4DB11480068DB
:1010D000401C10490860084600686FF000418842D3
:1010E00002D100200B49086004F090FA0A48007809
:1010F000401CC0B2084908700A2803DB00200870B1
:1011000004F083FA10BD0000040000200800002055
:10111000D04901200C0000201000002010B5154817
:10112000006840F47000134908601348006840F0FC
:1011300001001149086000200F49083108600E487D
:1011400000680E4908400C4908600D48091D0860F8
:10115000081F006820F48020091F0860002006494D
:101160000C310860FFF71EFF4FF000600149803925
:10117000086010BD88ED00E000380240FFFFF6FE79
:101180001030002410B502F057F910BD10B5012140
:10119000114800F042F8E8B101210F4800F02EF8A4
:1011A0000E48406948B10D484069401E0B494861EE
:1011B0000846406908B9012048740948406948B1A7
:1011C00007484069401E064948610846406908B919
:1011D0000120487410BD000000140040004A0120A6
:1011E0001852012021B1028842F08002028004E0FE
:1011F00002884FF67F731A4002807047CA4302820A
:10120000704721B1028842F00102028004E00288A6
:101210004FF6FE731A400280704730B50246002038
:1012200000230024158A05EA0103958905EA0104D3
:1012300013B10CB1012000E0002030BD1AB1838948
:101240000B43838102E083898B43838170470000D5
:1012500000220288184B98420ED0184B98420BD0AF
:10126000B0F1804F08D0164B984205D0154B9842EC
:1012700002D0154B984204D14FF68F731A404B8819
:101280001A43124B984207D0114B984204D04FF6A4
:10129000FF431A400B891A4302804B68C3620B88D4
:1012A0000385054B984202D0044B984201D18B7ABA
:1012B000038601238382704700000140000401403F
:1012C0000004004000080040000C004000100040F6
:1012D0000014004010B540F22551144800F085F884
:1012E000A0B11348C0891249498988420EDA0F48D3
:1012F00000F034F90E4949680D4AD28988540C48E7
:10130000C089401C0A49C8811820486140F2266102
:10131000064800F06AF840B1002240F22661034816
:1013200000F08DF801200249087410BD0010014042
:10133000004A012010B540F22551144800F055F83C
:10134000A0B11348C0891249498988420EDA0F4872
:1013500000F004F90E4949680D4AD28988540C48B6
:10136000C089401C0A49C8811820486140F22661A2
:10137000064800F03AF840B1002240F226610348E6
:1013800000F05DF801200249087410BD00480040DB
:101390001852012001F40072B2F5007F00D100BFA5
:1013A000CA430280704721B1828942F4005282818F
:1013B00004E082894DF6FF731A40828170471AB1AA
:1013C000838A0B43838202E0838A8B438382704744
:1013D00002460020B1F5007F00D100BF13880B400A
:1013E0000BB1012000E00020704770B502460024D8
:1013F00000230025002040F66A16B14200D100BF4C
:10140000C1F3421501F01F03012606FA03F3012D73
:1014100002D19689334006E0022D02D1168A33406C
:1014200001E0968A33400C12012606FA04F416886D
:10143000344013B10CB1012000E0002070BDF0B5C4
:101440000346002400260025002040F66A17B94212
:1014500000D100BF1846C1F3421401F01F06012756
:1014600007FA06F5012C01D10C3004E0022C01D161
:10147000103000E014301AB107682F43076002E013
:101480000768AF430760F0BD2DE9FF4705460E46EC
:101490000024A14600BFA046B08900B100BF2C8A3D
:1014A00024F44054F08804432C82AC8941F20C604F
:1014B0008443B08831890843718908430443AC816F
:1014C000AC8A24F44074B0890443AC826846FFF7C8
:1014D00097FC2048854202D01F48854202D1DDF8A2
:1014E0000C9001E0DDF80890A88900F4004040B1BC
:1014F00009EBC90000EB091031684900B0FBF1F7B6
:1015000007E009EBC90000EB091031688900B0FB66
:10151000F1F76420B7FBF0F004012009642101FB1E
:101520001078A88900F4004040B1322000EBC800D8
:10153000B0FBF1F000F00700044308E0322000EBBC
:1015400008106421B0FBF1F000F00F0004432C817F
:10155000BDE8FF8700100140001401400146888863
:10156000C0F308007047C1F308028280704770B56D
:1015700005460E46284600F0BEF904464FF6FF70B9
:10158000844205D046F4004105F28C5020F8141036
:10159000E0B270BD2DE9F04105460E4617461C46E7
:1015A000012105F56B7000EB4410817005F56B703F
:1015B00000EB4410C66005F56B7000EB441007614A
:1015C00005F56B7000EB4410007E30B9002105F585
:1015D0006B7000EB4410017205E0022105F56B70A1
:1015E00000EB4410017221462846FFF78EF90020D7
:1015F000BDE8F0812DE9F04105460E4617461C4630
:10160000002105F56B7000EB4410817005F56B70DF
:1016100000EB4410C66005F56B7000EB44100761E9
:1016200005F56B7000EB4410407E28B905F56B7032
:1016300000EB4410017205E0022105F56B7000EB30
:101640004410017221462846FFF75FF90020BDE8EB
:10165000F0812DE9F04105460C4616461F46022151
:101660002175012161750021E1822683618306F0E5
:101670008000802805D105F56B7000EB47100176DE
:1016800005E0002105F56B7000EB47104176002363
:101690001A462146284600F02BF8BDE8F0810146A5
:1016A0000122C1F81023002070472DE9F0410546C2
:1016B0000E4617461C46012105F56B7000EB4410E1
:1016C0008170022105F56B7000EB4410017205F585
:1016D0006B7000EB4410C66005F56B7000EB4410B6
:1016E000076121462846FFF710F90020BDE8F08188
:1016F0002DE9F04180460C4615461E460127E0784C
:10170000012802D0022820D108E03246294620468E
:1017100001F0D9FC0220E070012717E0207F0D289E
:1017200005D10120E0700021217700270CE0207F07
:101730000B2803D10120E070022705E0207F0C2850
:1017400002D10120E070032700E000BF00BF38464F
:10175000BDE8F0812DE9F04105460F4616461C46CE
:10176000002105F56B7000EB4410817005F56B707E
:1017700000EB4410C76005F56B7000EB4410066188
:101780002EB9012105F56B7000EB4410417605F58B
:101790006B7000EB4410407E30B9002105F56B7092
:1017A00000EB4410017205E0022105F56B7000EBBF
:1017B0004410017221462846FFF7A7F80020BDE833
:1017C000F08170B505460E461446002105F56B7094
:1017D00000EB44108170032105F56B7000EB4410A1
:1017E000017205F56B7000EB4410C660082105F529
:1017F0006B7000EB4410016121462846FFF785F825
:10180000C0B270BD0246022106E0002302F28C50F5
:1018100020F81130481CC1B20829F6DB00207047BF
:1018200070B505460C46002020706070A070012045
:10183000E070012121774021A171002084F820006F
:101840000121212001552179284600F023F86179F2
:10185000284600F01FF8002070BD01460022C1F8A4
:1018600010230020704770B504460D46052D01D0A9
:10187000042D06D1D4F88010486C80470A202070CF
:1018800007E0062D05D10A202070D4F880100868E2
:10189000804770BD0246082909DA02F28C5030F800
:1018A0001100C0F30E0302F28C5020F8113000201A
:1018B00070472DE9F04780460C4616461D46DDE987
:1018C000089746F08001217506216175E58205F4CF
:1018D0007F40B0F5407F03D140F20941218301E010
:1018E0000021218367833B464A4621464046FFF755
:1018F000FFFEBDE8F0870246002100BF0AE002F2C9
:101900008C5030F8110000F4004008B908467047C8
:10191000481CC1B20829F2DB4FF6FF70F7E710B59B
:1019200002460B88147823440B801378981810BD56
:101930002DE9FC4104460D461646002704F5887043
:101940004FF4007300222946CDE900062046FFF738
:10195000B0FF5FEA000814D106E004F58870C05DAE
:101960000949C855781C87B2B742F6DB04F588737D
:1019700005F1500205F13E0105F13400009601F039
:10198000B5F94046BDE8FC81E06601202DE9FC4147
:1019900004460D46164604F588704FF48073002205
:1019A0002946CDE900062046FFF783FF070006D150
:1019B000324604F5887105F1220001F025FA384617
:1019C000BDE8FC812DE9FC470446884615461E46C5
:1019D0000A9F04F5887045F4407300224146CDE922
:1019E00000072046FFF765FF5FEA000905D13A4688
:1019F000314604F5887001F056FA4846BDE8FC8788
:101A00002DE9F04106460C464FF000080025002164
:101A1000A174207F0C2876D2DFE800F0FD060F3D90
:101A2000466576919AC0D7ED627904F1140130468B
:101A3000FFF7C7FE02212177EEE061793046FEF71D
:101A40001EFF0546012D1FD1207D00F08007608B11
:101A500058B141F2883072490880802F02D10321A9
:101A600021770CE00521217709E032206C490880BC
:101A7000802F02D10921217701E00721217730460B
:101A8000FEF7EEFE208205E0032D03D10B21217726
:101A90000521A174C0E02379A2893046A168FFF72F
:101AA00004FE04212177B7E021793046FEF7E7FEF6
:101AB0000546012D01D109212177042D02D160783D
:101AC00020700FE0032D02D10B2121770AE0304670
:101AD000FEF7C6FE218A401A51490988884201D979
:101AE0000B21217798E00121627906F56B7000EBFC
:101AF000421041766379A2893046A168FFF72AFE39
:101B00000621217788E086E061793046FEF7B7FE4E
:101B10000546012D02D1072121770FE0042D04D1C4
:101B2000607820700C21217708E0022D02D1052178
:101B3000217703E0032D01D10B2121776CE023797C
:101B4000002211463046FFF7B0FD0821217763E0FF
:101B500021793046FEF793FE0546012D04D16078C9
:101B600020700D21217718E0032D02D10B21217760
:101B700013E03046FEF774FE218A401A284909888E
:101B8000884202D90B21217707E0042D05D1607826
:101B900020700421A1744FF003083DE0617906F53F
:101BA0006B7000EB4110407E80F00101627906F518
:101BB0006B7000EB4210417663790022114630468B
:101BC000FFF7C8FD0A21217726E061793046FEF74C
:101BD00056FE0546012D04D1607820700D21217735
:101BE00008E0022D02D10921217703E0032D01D164
:101BF0000B21217710E0A07B401CC1B2A173022908
:101C000002DC0121217705E00821A17460782070B1
:101C10004FF0020800E000BF00BF4046BDE8F08181
:101C2000E400002070B592B005460C460126A0786D
:101C30000A287AD2DFE800F00528375D667A97B483
:101C4000D1DB082221462846FFF7A0FED8B994F838
:101C50002910A1712846FEF751FE0120A070A0793D
:101C60000021CDE90010617900231A46284600F0D2
:101C700069FFA0790021CDE90010217900231A46DF
:101C8000284600F05FFFB5E0122221462846FFF704
:101C90007DFE38B9D4F88000C16904F1220088477C
:101CA0000220A070A6E001222146284601F0E5F9B5
:101CB000F0B9022001F0DCFB0120A41CA077D4F8CD
:101CC0007E10086A80470320207000200090019059
:101CD000A27FA1780346284600F034FF0020009040
:101CE0000190A27FA41E61790346284600F02AFFD6
:101CF00080E0092221462846FFF71AFE08B9042091
:101D0000A07077E0E28E21462846FFF711FE58B911
:101D1000D4F8800004F1500204F13E01436A04F15A
:101D2000340098470520A07064E062E094F8300029
:101D300088B1FF20009094F8302002AB214628465D
:101D4000FFF740FE70B9D4F88000816A02A8884786
:101D50000620A07006E0D4F88000816A27A088479A
:101D60000620A07046E094F8310088B1FF20009072
:101D700094F8312002AB21462846FFF723FE70B9C4
:101D8000D4F88000C16A02A888470720A07006E046
:101D9000D4F88000C16A19A088470720A07029E004
:101DA00094F8320088B1FF20009094F8322002AB02
:101DB00021462846FFF706FE70B9D4F88000016B73
:101DC00002A888470820A07006E0D4F88000016BC4
:101DD0000AA088470820A0700CE094F8392021461A
:101DE000284601F05DF908B90920A07002E000263C
:101DF00000E000BF00BF304612B070BD4E2F410062
:101E00002DE9F04106460F4614461D46DDF81880C0
:101E1000304601F0CFFA002001F0B4FA21463046F6
:101E2000FFF7FEFCE567C4F8808039463046FEF7D0
:101E300031FDD4F8801008688047304601F0A4FADC
:101E4000BDE8F08170B505460C4621212175FF21C2
:101E500061750021E1822183618300231A462146B6
:101E60002846FFF745FC70BD2DE9F04105460E46BA
:101E70001446012714B1012C12D108E01048037850
:101E8000C27831462846FFF7E4FB074609E00C48D4
:101E90004378827831462846FFF7DBFB074600E0AF
:101EA00000BF00BF07480068401C0649086008469C
:101EB0000068042800D904273846BDE8F0810000F6
:101EC000C4600120A000002010B5024600200023BD
:101ED000014C237010BD0000B46001202DE9F041D9
:101EE00005460F46002601242846FEF703FD20B3D1
:101EF000154801782846FEF7C7FC06460D2E01D08E
:101F000002241CE0114800681149884216D10F488C
:101F1000406810494968884211D10C48007B08B9D3
:101F200000240CE00948007B012801D1012406E0CF
:101F30000648007B022802D1022400E00224064861
:101F4000C4732046BDE8F081C4600120A460012074
:101F50005553425384600120B4600120012812D1FE
:101F60000D490978491C0C4A1170114609780A2953
:101F700005DA0621094A11700121D1700AE00A210F
:101F8000064A117006E0022803D10A21034A1170A3
:101F900000E000BF70470000BC000020B4600120DA
:101FA00070B505460C46A1212175FE216175002101
:101FB000E1822183012161830123034A21462846CE
:101FC000FFF796FB70BD0000CC6001202DE9F047C3
:101FD00081460F463E46012403254FF0000848463F
:101FE000FEF788FC002878D05E4800780B2875D270
:101FF000DFE800F0060D1E5566798A999E44B00010
:10200000484600F05FFA012056490870A5E03946BD
:102010004846FFF717FF044614B9022051490870DB
:10202000032C04D102204F4948700920087094E025
:1020300039464846FFF7B4FF0446BCB94A48007A1F
:10204000494981F80802084690F8080200280ADD8C
:102050004648007838B9012044490870D6F8801005
:10206000086C804779E003203E490870032C04D1B6
:1020700003203C494870092008706EE07379002203
:1020800039464846FFF7E5FA04463CB90020364990
:1020900081F8080233484078324908705DE04846CC
:1020A00000F086FC05463DB904202E49087000204A
:1020B0002F490870002402E02846FFF74FFF4CE04C
:1020C000484600F097FB05464DB9052025490870A4
:1020D000002027490870002404E03FE03CE0284647
:1020E000FFF73CFF39E0484600F09CFA05463DB951
:1020F00008201C49087000201D490870002402E0D7
:102100002846FFF72BFF28E0484600F0E1FB054694
:102110002DB91448407813490870002402E028467D
:10212000FFF71CFF19E03946484600F023F814E099
:10213000D6F88010C86B804700F0FF08B8F1000F98
:1021400003D108200749087003E0B8F1010F00D15E
:10215000062402E0042400E000BF00BF2046BDE8E2
:10216000F0870000B4600120C4600120D00000208E
:10217000BC0000202DE9F0478046894600244046F7
:10218000FEF7B8FB00287DD0C548007909287AD22F
:10219000DFE800F079051251A3FDFCFBFA00C1480D
:1021A00043781F22C0494046FFF724FA0120BC496A
:1021B00048710220087170E1BA4841784046FEF744
:1021C0005EFB0446012C26D10020B849086002209D
:1021D000B3494871B448007B00F08007B24880687A
:1021E000A8B1B1488068B2490860AD488068B1497B
:1021F000086008460068B0490860802F03D10320BA
:10220000A749087116E00420A549087112E00520CD
:10221000A34908710EE0022C04D1A1484079A049DD
:10222000087107E0042C05D10120A449087008209A
:102230009B49087131E19B4801784046FEF71FFB3E
:102240000446012C03D09648407903283AD0002058
:1022500096490860032092494871924880889449C1
:102260000968884219D28F480378828891480168AA
:102270004046FFF78FF98B4880888D490968081A16
:102280008B4901E00AE107E10860864880888949B6
:1022900009680844874908601EE08548006818B945
:1022A00005207F49087117E07E4803788048008840
:1022B00082B2804801684046FFF76CF900207C49F3
:1022C000086009E0042C07D100207C490870072031
:1022D0007349087105204871DFE072484178404633
:1022E000FEF7CDFA0446012C3BD100206F4908606F
:1022F00004206B4948716B48C0886D490968884261
:102300001AD268484378C2886A4801684046FFF795
:1023100071F968480068684908606248C088654982
:1023200009680844634908605E48C08860490968D4
:10233000081A5F49086042E05D48006818B9052046
:10234000574908713BE0574843785948008882B2A2
:10235000584801684046FFF74DF90020544908608D
:102360002DE0022C21D15348006853490968884266
:1023700012D04C484378C288C088DFF838C1DCF8F6
:1023800000C0ACEB000103E074E059E037E017E077
:102390004046FFF72FF912E042484378C28845488B
:1023A00001684046FFF726F909E0042C07D1012017
:1023B0004249087008203A490871052048716CE0CC
:1023C0000520374948713E4888603F2088810D26A6
:1023D00004E000203A498855701EC6B2002EF8D19C
:1023E0000020374908702F4803782D483F22816824
:1023F0004046FFF7CFF80620294908714DE02948EB
:1024000001784046FEF73BFA0446012C0FD100202C
:1024100026490860052022494871084680780870DE
:1024200049464046FFF75AFD1D49C87307E0042C92
:1024300005D10020214908700720194908712CE0B6
:10244000002249464046FFF70FFD054665B91B4887
:102450000078022803D108201149087109E01048CA
:1024600040790F49087104E0042D02D102200C4983
:10247000C87312E0012249464046FFF7F5FC0546C5
:1024800025B9074840790649087104E0042D02D1B6
:1024900002200349C87300E000BF00BFBDE8F08719
:1024A000B4600120C460012084600120A0000020ED
:1024B000A4000020A8000020AC000020B0000020F4
:1024C000A460012010B504462046FEF713FA48B177
:1024D0000748084908600848486000204873012000
:1024E0000649C8700020064908600649087010BDFA
:1024F000555342438460012050403020B460012095
:10250000A0000020BC00002070B504460D46104815
:10251000407860B10E484178204601F01CFA0C4822
:1025200041782046FFF7B6F900200949487008486D
:10253000007860B106480178204601F00CFA0448A2
:1025400001782046FFF7A6F900200149087070BD08
:10255000C46001207CB506460D462C4694F8430025
:10256000082856D194F84500502852D194F85200CA
:1025700000F0800038B194F852002949C870B4F8CE
:102580005400888006E094F8520025498870B4F819
:102590005400C88094F85A0000F0800038B194F8D4
:1025A0005A001F49C870B4F85C00888006E094F8AF
:1025B0005A001B498870B4F85C00C88018488178BC
:1025C0003046FEF7D4FF164948700846C1783046B9
:1025D000FEF7CDFF124908700846C0880221CDE9F8
:1025E00000102120035D94F820200D4841783046EA
:1025F00000F02EFB0A4880880221CDE9001021203E
:10260000035D94F8202006480178304600F020FB56
:1026100003E0D4F88010086C804700207CBD0000E7
:10262000C460012070B5054603262846FEF762F90E
:10263000002855D02B48C078012802D002284DD15F
:1026400027E03F2028498860802008730A2088738B
:1026500026482449886005208870102405E0002160
:1026600021480F300155601EC4B2002CF7D11A204A
:102670001D49C8733F211C484174C1740120194988
:102680000871072008700320C8730220C870032651
:1026900025E01448C07B80B91448807800F08000A1
:1026A00018B101201249087302E000201049087394
:1026B00001200C49C87000260FE00A48C07B0128A1
:1026C00003D10849C870012607E00648C07B0228EC
:1026D00003D101200349C870022600E000BF00BFFB
:1026E000304670BDB460012084600120E0620120AA
:1026F000D0620120FFB581B007460E461D4603207B
:10270000394908703846FEF7F5F8002867D0374891
:10271000C078012802D002285FD139E034488560B2
:102720008020334908730A2088733048866010245B
:1027300005E000212E480F300155601EC4B2002C68
:10274000F7D128202A49C8739DF80F1028484174F2
:102750009DF80E1081749DF80D10C1749DF80C1039
:102760000175C5F34F2000909DF801102048817538
:102770009DF80010C17501201C49087107200870E0
:102780000320C8730220C87003201749087025E091
:102790001648C07B50B93846FEF7ACF830B101207E
:1027A0001249C87000201049087015E00F48C07B1E
:1027B000012807D13846FEF79DF818B101200B49D2
:1027C000C87009E00948C07B022805D101200749EB
:1027D000C87002200449087000E000BF00BF024832
:1027E000007805B0F0BD0000D1000020B4600120E9
:1027F0008460012070B5054603262846FEF77AF866
:1028000000285AD02E48C078012802D0022852D180
:1028100023E008202B498860802008730A208873F1
:1028200029482749886004208870102405E0002189
:1028300024480F300155601EC4B2002CF7D125206A
:102840002049C87301201E49087107200870032021
:10285000C8730220C87003262EE01948C07BC8B98F
:10286000194800781949C870174840788870164888
:10287000807848701448C0780870134881791348EC
:1028800041721148C0791149087201200C49C87081
:1028900000260FE00A48C07B012803D10849C87010
:1028A000012607E00648C07B022803D10120044925
:1028B000C870022600E000BF00BF304670BD0000B7
:1028C000B460012084600120E0620120D062012018
:1028D00070B5054603262846FEF70CF800285DD0A3
:1028E0002F48C078012802D0022855D12BE03F2084
:1028F0002C498860802008730A2088732A48284958
:10290000886008468078487006208870102405E0AA
:10291000002124480F300155601EC4B2002CF7D1AD
:1029200003202049C87300211E4801743F21C1744F
:1029300001201B490871072008700320C87302207A
:10294000C870032629E01648C07BA0B91648017854
:102950001648C17114484178144881711248817831
:10296000124841711048C0781049087101200C4983
:10297000C87000260FE00A48C07B012803D108492F
:10298000C870012607E00648C07B022803D1012059
:102990000349C870022600E000BF00BF304670BD8A
:1029A000B460012084600120E0620120D062012037
:1029B00070B5054603262846FDF79CFF002846D043
:1029C0002448C078012802D002283ED124E000200B
:1029D0002149886008730620887320481D49886053
:1029E0003F20888103208870102405E000211A48C8
:1029F0000F300155601EC4B2002CF7D100201649DB
:102A0000C873012013490871072008700320C87398
:102A10000220C870032619E00E48C07B20B90120AF
:102A20000C49C87000260FE00A48C07B012803D17A
:102A30000849C870012607E00648C07B022803D178
:102A400001200449C870022600E000BF00BF3046E4
:102A500070BD0000B460012084600120A4600120EA
:102A60002DE9FF4182B007460E461D464FF0030890
:102A70003846FDF73FFF00285BD03048C07801287A
:102A800002D0022853D138E02D48856000202C491F
:102A900008730A20887329488660102405E0002105
:102AA00027480F300155601EC4B2002CF7D12A20F0
:102AB0002349C8739DF81310214841749DF81210E2
:102AC00081749DF81110C1749DF810100175C5F343
:102AD0004F2001909DF80510194881759DF804104C
:102AE000C175012015490871072008700320C873BB
:102AF0000220C8704FF003081AE01048C07B28B9C4
:102B000001200E49C8704FF000080FE00B48C07B51
:102B1000012802D10949C87008E00848C07B022892
:102B200004D101200549C8704FF0020800E000BF41
:102B300000BF404606B0BDE8F0810000B46001204F
:102B4000846001202DE9F04704460D4617461E46D5
:102B5000DDE9089827B104F56B7000EB45100770AC
:102B600004F56B7000EB4510C088404508D0B8F103
:102B7000000F05D004F56B7000EB4510A0F806803F
:102B800004F56B7000EB4510C078B04205D026B15B
:102B900004F56B7000EB4510C6702946204600F026
:102BA0001BFF0020BDE8F08738B505460024002053
:102BB0000090284601F03BF9002847D0284601F054
:102BC00040F90090009808B9002038BD0098C0F383
:102BD000C00018B1284602F0F3F804430098C0F38F
:102BE000001018B1284602F038F804430098C0F3EA
:102BF000401018B1284601F072FE04430098C0F35B
:102C0000806018B1284601F091FF04430098C0F39A
:102C1000406018B1284601F03AFA04430098C0F326
:102C2000006018B1284601F0F1FE04430098C0F39B
:102C3000407018B1284601F0F1F904430098C0F340
:102C4000405018B1284601F0FFF904432046BCE784
:102C50002DE9F04704460D4617461E46DDE9088972
:102C600004F28C5010F8150000F07F0104F56B7031
:102C700000EB4510417004F28C5010F81500C0F3C1
:102C8000C01104F56B7000EB4510817004F56B709A
:102C900000EB4510077004F56B7000EB451080F8F1
:102CA000058004F56B7000EB4510A0F8069004F564
:102CB0006B7000EB4510C670002104F56B7000EBE3
:102CC0004510017604F56B7000EB451041762EB986
:102CD000012104F56B7000EB451001712946204677
:102CE00000F07AFE0020BDE8F08700002DE9F04FEB
:102CF00085B00646894692461D462C460027B846B2
:102D000000BF2878307068787070A978E87801EB97
:102D1000002070802879307168797071A879B0715D
:102D2000E879F071287A30720E98092864DD09205C
:102D30000090307902285ADCBB4653E069462046B1
:102D4000FEF7EDFD0446607804284BD1A07847B229
:102D500007EBC70000EB090BE078032842DA2146B5
:102D600002A800F08DF84FF000089DF80C00022832
:102D700038DC32E069462046FEF7D1FD0446607833
:102D800005282AD10AEB071000EBC80001901C4867
:102D90000078B84206D01A490F7002A9584600F0D0
:102DA0006FF80CE02179607901EB00201549098862
:102DB000884200DA15E002A9584600F061F8214681
:102DC000019800F04DF82179607901EB00200D4960
:102DD000088008F101004FFA80F89DF80C0040458A
:102DE000C8DC00BF7088BDF800108842A6DC002057
:102DF000044908800249087005B0BDE8F08F000062
:102E0000E8000020E600002010B50B7803704B7836
:102E100043708C78CB7804EB032343800B790371E8
:102E20004B7943718B798371CB79C371082A16DD95
:102E30000C7A4B7A04EB032303818C7ACB7A04EB74
:102E4000032343810C7B4B7B04EB032383818B7B2C
:102E50008373CB7BC3730B7C03744B7C437410BDB7
:102E60000A7802704A7842708A788270CA78C27092
:102E70000B794A7903EB022282808A79827170474A
:102E80000A7802704A7842708A788270CA78C27072
:102E90000A7902714A7942718A798271CA79C2715A
:102EA0000A7A0272704730B513464578032D14D163
:102EB0000578AD1E9D4202DC0578AD1E00E01D4682
:102EC000ACB2801C002204E0855C0D70491C951C8E
:102ED000AAB2A242F8DB00250D7030BD3EB5054612
:102EE0000C46022002902846FDF704FD30B92078F8
:102EF00020B12078022801D00220207020780B28F1
:102F000075D2DFE800F006109CB44D687B87598CC1
:102F10008D002846FDF7EEFC20B1012020706420D2
:102F200000F0A6FAA4E0D4F8801088688047002159
:102F30002846FEF71CFB607180212846FEF717FB30
:102F400020712846FDF7DAFC48BBD4F88010C86829
:102F500080472846FDF789FCC1B221200155042095
:102F600020702122105DD4F8802091698847A079D3
:102F70000021CDE900102120035D94F82020217963
:102F80002846FFF765FEA0790021CDE90010212039
:102F9000035D94F8202061792846FFF759FE67E029
:102FA00021462846FEF73EFE28B9D4F88010486B2B
:102FB0008047082020705BE0D4F88010886B804741
:102FC000012807D1E06F214602682846904708B9DA
:102FD000052020704CE0E06F21468268284690472B
:102FE00002909DF8080018B90620207005E03EE028
:102FF0009DF808102046FEF736FC39E0E06F2146C8
:10300000C2682846904702909DF808102046FEF7B7
:103010002AFC2DE021462846FEF7F2FC28E027E0B6
:1030200021462846FEF7FCFBD4F88010486880470C
:10303000E06F04F1200142682846904718E0D4F878
:1030400080100869804721462846FEF7E9FBD4F83E
:10305000801048688047E06F04F1200142682846EC
:1030600090472846FEF7CEFB0020207000E000BF0E
:1030700000BF3EBD01460020704770B506460C46B5
:1030800015460021217505216175E5820021218306
:10309000618300231A4621463046FEF729FB70BDA6
:1030A00070B506460C46154600212175092161754B
:1030B000E58200212183618300231A4621463046A0
:1030C000FEF716FB70BD10B5034618785870072040
:1030D000187099609A8101241C77002010BD0000AF
:1030E0002DE9F04106460C46174625466879082822
:1030F00003D1064801F0D0FE05E06879032802D12B
:10310000034801F0C9FEBDE8F0810000872C0308E8
:10311000A92C0308002001490870704750000020C6
:103120007047000010B5024801F0B6FE10BD000067
:10313000D12B030810B50021084603F069FA0248B4
:1031400001F0AAFE10BD0000E62B030810B502A096
:1031500001F0A2FE10BD00003E2044657669636563
:10316000206E6F7420737570706F727465642E0DAD
:103170000A00000010B504461CB90A4801F08CFE94
:103180000EE0012C03D1084801F086FE08E0022C75
:1031900003D1064801F080FE02E0054801F07CFE04
:1031A00010BD0000192C0308382C0308572C030805
:1031B000752C030870B504462546298903A001F043
:1031C0006BFE698905A001F067FE70BD3E2056497F
:1031D00044203A2025303458680D0A003E205049DA
:1031E00044203A2025303458680D0A0010B50248B2
:1031F00001F052FE10BD0000FE2B030810B5084878
:10320000007858B901200649087006A001F044FE74
:103210000AA001F041FE11A001F03EFE10BD000029
:103220009C0000203E20555342204F5447204853D5
:10323000204D534320486F73740D0A003E205553B0
:103240004220486F7374206C6962726172792073D6
:103250007461727465642E0D0A0000002020202025
:103260002055534220486F7374204C69627261721A
:10327000792076322E312E300D0A000010B50A4822
:10328000007810B101280CD105E004F0F3F9012019
:103290000549087005E004F031F901200249087081
:1032A00000BF00BF002010BD5000002010B5044634
:1032B000214602A001F0F0FD10BD00003E204D614E
:1032C0006E756661637475726572203A202573723B
:1032D0000D0A000010B502A001F0DEFD10BD0000D7
:1032E0003E204F76657263757272656E74206465F8
:1032F0007465637465642E0D0A00000010B5044601
:10330000214602A001F0C8FD10BD00003E20507211
:103310006F64756374203A2025730D0A0000000065
:1033200010B502A001F0B8FD10BD00003E205553BD
:1033300042485F5553525F526573657444657669C0
:103340006365200D0A00000010B50446214602A066
:1033500001F0A2FD10BD00003E2053657269616C52
:10336000204E756D626572203A2025730D0A0000AB
:1033700010B5024801F090FD10BD0000412D03087A
:10338000012070477047704738B504464FF4C0605D
:10339000FDF7D8FC4D208DF8000001208DF80100CC
:1033A00003208DF8020001208DF803006846FDF728
:1033B0008DFC38BD1CB5044601210220FDF7E0FC60
:1033C0004FF44040009003208DF8050002208DF856
:1033D000040069460948FDF7C7F90C220E21074889
:1033E000FDF70AFA0C220F210448FDF705FA012126
:1033F0004807FDF7C5FC00F003F81CBD00040240BF
:1034000008B500214FF00060FDF7A6FC4FF4A06066
:10341000FDF798FC1C208DF8000001208DF80100BC
:103420008DF802008DF803006846FDF74FFC01217E
:103430000846FDF7C5FC08BD10B501218807FDF75A
:10344000ECFE88B101218807FDF7D8FE0748006827
:1034500028B106480068401E0449086004E00021C5
:103460004FF08040FDF7CDFE10BD00004C00002065
:1034700010B5044601212046FCF746FF10BD10B5EB
:10348000044602212046FCF73FFF10BD3EB504462E
:1034900000250020029001900090207A012843D15D
:1034A000E068806B0190019820F480300190607A90
:1034B00028B1019820F4801000F580100190019847
:1034C000E168886300200290E068C068029002987A
:1034D00020F040000290029820F4801000F5801047
:1034E0000290029820F480000290029820F40030AC
:1034F0000290029820F4002002900298E168C860CF
:10350000204600F0C9F8E078012843D1009820F067
:103510001E000A300090009820F02000203000901B
:103520000098E168886035E0E068C0680290029821
:1035300020F04000403002900298E168C8602046C8
:1035400000F0AAF800200190019820F4803000F5E6
:1035500080300190019820F4802000F580200190B7
:10356000019820F4002000F500200190019820F43B
:10357000001000F500100190607A28B1019820F445
:10358000801000F5801001900198E1688863142094
:10359000FFF76EFFE07801280FD1E06880680090A7
:1035A000009820F01E000A300090009820F02000C3
:1035B000203000900098E168886028463EBDFEB546
:1035C000044600260025002002900190009020462D
:1035D000FFF7D8FE0021D4F80C010160207A012801
:1035E00003D1204600F00FFC03E00121204600F04B
:1035F0000AFC204600F05DFC6069006800900098BD
:1036000020F004000090009960690160E07A00BB3E
:103610004FF40070E168486202986FF30F0000F504
:1036200000700290029880B200F1807002900298BF
:10363000E168886201986FF30F0000F54070019017
:10364000019880B200F1807001900198E168C1F8A2
:1036500000011021204600F021F9204600F0F8F882
:1036600000250DE04FF0FF3104F1900050F82500E7
:103670008160002104F1900050F82500C1606D1CAC
:103680002078A842EED80121204600F04EF82046CE
:1036900000F0A4F83046FEBDF8B50446002600252B
:1036A0000020009000BF0320FFF7E9FEE0680069FA
:1036B0000090681C05461349884201D90020F8BDD6
:1036C0000098C00F0028EED00025009820F00100DF
:1036D000401C00900098E168086100BFE068006944
:1036E0000090681C05460749884200D904E000980C
:1036F00000F001000028F1D100BF0320FFF7BFFE5A
:103700003046DCE7400D030008B5014600200022EA
:103710000092009A22F00102521C0092CA6892683C
:10372000009B9A43CB689A6008BD38B505460C46A5
:103730000020009021462846FFF725FE284600F08D
:1037400088FB00900098C0F3003058B9012C09D1D3
:10375000009820F4805000F5805000900099D5F832
:10376000CC0001600098C0F3003040B13CB9009833
:1037700020F4805000900099D5F8CC000160C8205A
:10378000FFF776FE38BD08B500210091491EC268DA
:1037900051606FF08041C2685161009921F0004191
:1037A00001F100410091009921F4006101F50061EF
:1037B00000910099C268916108BD08B501460020DA
:1037C00000220092009A22F00102521C0092CA6864
:1037D0009268009B1A43CB689A6008BD38B50446CE
:1037E000002500200090E1688861401EE168486182
:1037F0002046FFF7C8FFE07820B9009820F01000BD
:1038000010300090009820F0807000F180700090DF
:10381000009820F0007000F100700090009820F0F7
:10382000005000F100500090009820F0080008308F
:103830000090009820F4001000F500100090E0685F
:103840008069009988430843E1688861284638BD4B
:10385000F8B504460025002600200090009820F0CE
:103860001000103000900098E168086100BFE06827
:1038700000690090701C06460749884200D904E0A0
:103880000098C0F300100028F1D100BF0320FFF71B
:10389000F6FD2846F8BD0000400D0300F8B50446CB
:1038A0000D460026002700200090009820F0200000
:1038B00020300090009865F38A1000900098E1682D
:1038C000086100BFE06800690090781C074607495E
:1038D000884200D904E00098C0F340100028F1D1DC
:1038E00000BF0320FFF7CBFD3046F8BD400D0300BD
:1038F0000146C868406900F0010070471CB50246E7
:10390000002000230093009B23F0004303F10043B9
:1039100000930124009B64F3DC43009302F19003C5
:1039200053F82130009C1C6102F1900353F82130C0
:103930001B680193019B23F0004303F100430193B3
:10394000019B23F08043019302F1900353F821304F
:10395000019C1C601CBD10B586B0024600200023EF
:103960000393019302F1900353F821301B680093F5
:10397000009B23F0004303F100430093009B23F0DE
:10398000804303F180430093009BC3F3814323B141
:10399000009BC3F38143022B0BD1D368DB6A0393F3
:1039A000039BC3F307437BB9009B23F000430093C1
:1039B0000AE053691B690193019BC3F307431BB9D9
:1039C000009B23F00043009302F1900353F8213051
:1039D000009C1C6006B010BD3FB5024600200023CD
:1039E0000024029403940194441E009402F1900474
:1039F00054F82140009DA56000240394D478012C44
:103A000004D1039C24F00404241D039402F56B7478
:103A100004EB4114647934B1012C6AD0022C03D038
:103A2000032C38D138E000BF039C24F00104641C4F
:103A30000394039C24F0080408340394039C24F0AA
:103A4000800480340394039C24F4806404F580642F
:103A50000394039C24F010041034039402F56B7457
:103A600004EB4114A47834B1039C24F4807404F56D
:103A7000807403940FE0039C24F0400440340394CA
:103A800002F56B7404EB4114247924B1039C24F0F7
:103A90002004203403944EE0039C24F00104641CB1
:103AA0000394039C24F0100410340394039C24F02A
:103AB000080408340394039C24F0800480340394A5
:103AC000039C24F4806404F580640394039C24F430
:103AD000007404F50074039402F56B7404EB411454
:103AE000A4782CB1039C24F4807404F580740394AE
:103AF00021E0039C24F00104641C0394039C24F43F
:103B0000007404F500740394039C24F02004203412
:103B1000039402F56B7404EB4114A47854B1039C34
:103B200024F0800480340394039C24F4807404F50E
:103B30008074039400BF00BF02F1900454F8214048
:103B4000039DE560012404FA01F35469A4691C4350
:103B50005569AC61029C24F0007404F10074029475
:103B6000D468A469029D2C43D568AC6100240194FB
:103B700002F56B7404EB41142578019C65F39C54A9
:103B8000019402F56B7404EB41146578019C65F3B4
:103B9000CE24019402F56B7404EB4114A578019CCA
:103BA00065F3CF34019402F56B7404EB4114E478AF
:103BB000022C01D1012500E00025019C65F3514450
:103BC000019402F56B7404EB41146579019C65F373
:103BD0009344019402F56B7404EB4114E588019C55
:103BE00065F30A04019402F56B7404EB41146479E3
:103BF000032C05D1019C24F0005404F100540194DD
:103C000002F1900454F82140019D256004B030BDBC
:103C10002DE9F04388B004460D464FF00009C84630
:103C20004FF48077002006900790009004F56B70A9
:103C300000EB4510006910B304F56B7000EB451004
:103C4000016904F56B7000EB4510C0880144491E02
:103C500004F56B7000EB4510C088B1FBF0F086B244
:103C6000BE420DDD3E4604F56B7000EB4510C18889
:103C7000714304F56B7000EB4510016100E0012613
:103C800004F56B7000EB4510807850B104F56B7053
:103C900000EB4510C188714304F56B7000EB4510D3
:103CA000016104F56B7000EB45100169069861F342
:103CB00012000690069866F3DC40069004F56B70DF
:103CC00000EB4510017A069861F35E70069004F1EE
:103CD000900050F8250006990161E078012809D18B
:103CE00004F56B7000EB4510C16804F1900050F8CA
:103CF0002500416104F1900050F82500006807900C
:103D0000204600F08CF8079960F35D7107910798E1
:103D100020F0004000F100400790079820F080401C
:103D2000079004F1900050F8250007990160E078B1
:103D3000002864D104F56B7000EB451080780028F2
:103D40005DD104F56B7000EB45100069002856D07A
:103D500004F56B7000EB4510407930B1012821D09B
:103D6000022803D0032839D11BE000BFE068C06AF5
:103D7000039004F56B7000EB45100069C01CC0F3A4
:103D80008F08039880B240450ADA009820F020009E
:103D900020300090E068806900990843E1688861FC
:103DA0001DE000BF60690069019004F56B7000EBD5
:103DB00045100069C01CC0F38F08019880B24045CF
:103DC0000BDA009820F0806000F180600090E068DD
:103DD000806900990843E168886100E000BF00BF86
:103DE00004F56B7000EB4510008A83B204F56B702C
:103DF00000EB45102A46C168204600F0F7FF484610
:103E000008B0BDE8F08308B5426912680092009AD4
:103E100061F301020092009B4269136008BD0146F4
:103E20004869806800F0010080F00100704700B52B
:103E300002461046FFF75CFD012800D100BD0020BE
:103E4000FCE701460020CA685069CA6892691040C0
:103E5000704708B50146D1F8CC0000680090009882
:103E600020F004000090009820F0020000900098DC
:103E700020F008000090009820F0200000900098AA
:103E800008BD0146486940697047F0B50346002403
:103E9000D01CC71700EB9777BD10D3F8D06000BFD8
:103EA00003E030680860641C091DAC42F9D3084681
:103EB000F0BD38B504462046FFF7CBFF00900098D0
:103EC00020F4807000F5807000900099D4F8CC0048
:103ED00001600A20FFF7CCFA009820F4807000906F
:103EE0000099D4F8CC0001601420FFF7C1FA01203A
:103EF00038BD000070B502460C46002300200025A6
:103F0000D5700125957040259580012C0CD14FF07E
:103F1000A0430125D57208251570042555709D15FF
:103F2000D580022515720EE06CB9274B0025D5729D
:103F30000C251570062555704FF4A065D580022517
:103F400015720125D570D36003F500651561002158
:103F500010E003F5106505EB411602F1180545F870
:103F6000216003F5306505EB411602F1540545F873
:103F70002160491C55788D42EBD803F58065556169
:103F80004035C2F8CC50002108E003F5A06505EBF0
:103F9000411602F1900545F82160491C15788D42C3
:103FA000F3D8002108E003F5805505EB013602F156
:103FB000D00545F82160491C15788D42F3D803F5EA
:103FC0006065C2F80C5170BD00000440F8B50446AD
:103FD0000D460026E068C0680090009820F0005070
:103FE0000090009820F080400090012D06D10098AC
:103FF00020F0005000F10050009006E02DB900982C
:1040000020F0804000F1804000900098E168C86096
:104010003220FFF72DFA3046F8BD000038B50446CF
:104020000020009007480068816820468847009873
:1040300020F0005000F1005000900098E1684861C5
:10404000012038BDE00000200CB50146D1F89000F9
:1040500000680090009820F0004000F100400090BF
:10406000009820F0804000F180400090009AD1F844
:104070009000026000200190019820F4001000F5EB
:10408000001001900198CA68506101200CBD7CB5F8
:104090000546002400262846FFF7F3FE019000BFE6
:1040A0001BE0019880B20121A1400840A0B105F1B8
:1040B000900050F82400006800900098C0F3C030D1
:1040C00028B12146284600F00DF8064304E02146B9
:1040D000284600F01CFA0643641C2878A042E0D869
:1040E00030467CBD70B586B005460C4605F19000A3
:1040F00050F82460B0680590F0680490DDE9041081
:104100000840059005F1900050F8240000680390E5
:10411000002004900598C0F38000D0B100200190E9
:10412000019820F00400001D01900198B06005F195
:10413000900050F82400C0680190019820F002001F
:10414000801C019005F1900050F824000199C16095
:1041500073E00598C0F3401048B100200190019829
:1041600020F02000203001900198B06065E00598B3
:10417000C0F3C00078B305F1900050F82400C06887
:104180000190019820F00200801C019005F1900040
:1041900050F824000199C160052105F563700155AF
:1041A00000200190019820F010001030019001983B
:1041B000B06000200190019820F0080008300190C4
:1041C0000198B060059820F010000590E1B22846F3
:1041D000FFF7C1FB31E0FFE70598C0F3802060B333
:1041E00005F1900050F82400C0680190019820F07B
:1041F0000200801C019005F1900050F82400019904
:10420000C160E1B22846FFF7A6FB002001900198AB
:1042100020F01000103001900198B060082105F5E1
:104220006370015500200190019820F4806000F532
:10423000806001900198B06000BF0598C0F34020F5
:10424000F8B105F1900050F82400C0680190019881
:1042500020F00200801C019005F1900050F824002D
:104260000199C160E1B22846FFF775FB002001907B
:10427000019820F4007000F5007001900198B06082
:1042800042E1059800F00100002871D0E87801288B
:1042900012D105F1900050F824000069029005F554
:1042A0006B7000EB441000690299C1F31201411ACE
:1042B00005F5547040F82410012105F5637001558F
:1042C0000021783840F8241000200190019820F057
:1042D0000100401C01900198B0600398C0F3814038
:1042E00020B10398C0F3814002282AD105F1900043
:1042F00050F82400C0680190019820F00200801C52
:10430000019005F1900050F824000199C160E1B2DC
:104310002846FFF720FB00200190019820F01000B4
:10432000103001900198B06005F56B7000EB4410FF
:10433000007E80F0010105F56B7000EB4410017602
:10434000E2E00398C0F38140032899D1039820F05C
:10435000005000F10050039005F1900050F8240047
:1043600003990160012105F29B300155CCE0FFE784
:104370000598C0F34000002851D005F1900050F896
:104380002400C0680190019820F00200019005F11E
:10439000900050F824000199C16005F56370005D3C
:1043A000012804D1012105F29B3001552DE005F5CE
:1043B0006370005D052804D1042105F29B3001558E
:1043C00023E005F56370005D062804D005F56370F1
:1043D000005D082808D1002105F5457040F824103B
:1043E00003218730015510E00398C0F38140032872
:1043F0000BD105F56B7000EB4410007E80F00101DD
:1044000005F56B7000EB44100176002001900198D7
:1044100020F00200801C01900198B06074E00598C3
:10442000C0F3C01040B305F1900050F82400C068FC
:104430000190019820F00200801C019005F190008D
:1044400050F824000199C16005F5457050F824101A
:10445000491C40F82410062178300155E1B2284665
:10446000FFF779FA00200190019820F08000803059
:1044700001900198B06047E00598C0F30010E8B3E0
:104480000398C0F38140032815D105F1900050F83E
:104490002400C0680190019820F00200801C019067
:1044A00005F1900050F824000199C160E1B228465E
:1044B000FFF751FA18E00398C0F3814020B1039848
:1044C000C0F3814002280FD1039820F0004000F192
:1044D00000400390039820F08040039005F1900085
:1044E00050F8240003990160032105F5637001551C
:1044F00000200190019820F0100000E004E010304E
:1045000001900198B06000BF012006B070BD7FB57A
:1045100005460C4605F1900050F82460B068039001
:10452000F0680290DDE902100840039005F1900068
:1045300050F82400006801900398C0F38000D0B1C7
:1045400000200090009820F00400001D00900098CA
:10455000B06005F1900050F82400C0680090009809
:1045600020F00200801C009005F1900050F824001B
:104570000099C160B0E10398C0F3401048B1002039
:104580000090009820F02000203000900098B0604B
:10459000A2E10398C0F34020F8B105F1900050F873
:1045A0002400C0680090009820F00200801C009059
:1045B00005F1900050F824000099C160E1B228464E
:1045C000FFF7C9F900200090009820F4007000F572
:1045D000007000900098B0607EE1039800F0010048
:1045E00038B3002105F5457040F8241005F190001E
:1045F00050F82400C0680090009820F00200801C51
:10460000009005F1900050F824000099C160E1B2DB
:104610002846FFF7A0F900200090009820F0010044
:10462000401C00900098B060012105F563700155B1
:1046300052E10398C0F3C00010B30020009000982E
:1046400020F00800083000900098B06005F190005C
:1046500050F82400C0680090009820F00200801CF0
:10466000009005F1900050F824000099C160E1B27B
:104670002846FFF770F9052105F5637001552BE118
:104680000398C0F3001038B3002105F5457040F8D9
:10469000241005F1900050F82400C06800900098A4
:1046A00020F00200801C009005F1900050F82400DA
:1046B0000099C160E1B22846FFF74DF90020009053
:1046C000009820F01000103000900098B060032196
:1046D00005F563700155FFE00398C0F3C01040B3C7
:1046E00005F1900050F82400C0680090009820F078
:1046F0000200801C009005F1900050F82400009901
:10470000C160E1B22846FFF726F905F5457050F87B
:104710002410491C40F8241006217830015500204F
:104720000090009820F08000803000900098B060E9
:10473000D2E00398C0F3801038B3002105F545702E
:1047400040F8241005F1900050F82400C068009053
:10475000009820F00200801C009005F1900050F8B5
:1047600024000099C160E1B22846FFF7F4F8002068
:104770000090009820F04000403000900098B06019
:10478000042105F563700155A6E00398C0F380206D
:1047900060B305F1900050F82400C06800900098C4
:1047A00020F00200801C009005F1900050F82400D9
:1047B0000099C160E1B22846FFF7CDF800200090D3
:1047C000009820F01000103000900098B060082190
:1047D00005F56370015500200090009820F480607A
:1047E00000F5806000900098B06075E00398C0F319
:1047F0004000002870D005F1900050F82400C068F7
:104800000090009820F00200009005F1900050F810
:1048100024000099C16005F56370005D012815D181
:10482000012105F29B3001550198C0F38140022817
:1048300048D105F56B7000EB4410407E80F001011B
:1048400005F56B7000EB441041763BE005F56370B5
:10485000005D032804D1022105F29B30015531E0AF
:1048600005F56370005D04280FD105F56B7000EB52
:1048700044100079012803D1E1B22846FFF73EF841
:10488000022105F29B3001551CE005F56370005DC7
:10489000052804D1042105F29B30015512E005F5ED
:1048A0006370005D06280DD105F5457050F82400B1
:1048B000032807D1032105F29B30015500218738D9
:1048C00040F8241000200090009820F00200801C86
:1048D00000900098B06000BF012004B070BD7FB5AB
:1048E0000446E068C06A00900198C0F3C30104F573
:1048F0006B7000EB41100069C01CC0F38F0673E0C1
:104900004FF6FF71009801EA80050198C0F3C301DA
:1049100004F56B7000EB41100069A84215D20198B4
:10492000C0F3C30104F56B7000EB4110008A85B23F
:1049300000200390039820F0200020300390E068CE
:10494000806903998843E16888610198C0F3C301D5
:1049500004F56B7000EB41100069C01CC0F38F06BA
:104960000198C0F3C302C0F3C30304F56B7000EBFE
:1049700043102B46C168204600F038FA0198C0F376
:10498000C30104F56B7000EB4110C0684119019838
:10499000C0F3C30204F56B7000EB4210C1600198D4
:1049A000C0F3C30104F56B7000EB41100069411BBB
:1049B0000198C0F3C30204F56B7000EB4210016173
:1049C0000198C0F3C30104F56B7000EB411040691E
:1049D00041190198C0F3C30204F56B7000EB42105B
:1049E0004161E068C06A0090009880B2B0420ADD80
:1049F0000198C0F3C30104F56B7000EB411000692E
:104A000000287FF47DAF012004B070BDFEB50446E0
:104A1000002600250020009002900190D4F8CC00E0
:104A200000680290D4F8CC0000680190019820F052
:104A300004000190019820F002000190019820F0FC
:104A400008000190019820F0200001900298C0F326
:104A5000400058B1019820F00200801C01903248BB
:104A6000006841682046884745F001050298C0F378
:104A7000C000002842D0019820F0080008300190C2
:104A80000298C0F38000002838D0274800684168A9
:104A9000204688470298C0F34140022804D002987B
:104AA000C0F34140012828D1606900680090029855
:104AB000C0F34140022811D141F270716069416038
:104AC000009800F00300022818D0207A022803D1B1
:104AD00002212046FFF797F901260FE04BF68031BF
:104AE00060694160009800F00300012806D00121B0
:104AF0002046FFF788F9012600E001260298C0F35E
:104B0000401030B1019820F020002030019045F095
:104B1000010516B12046FFF7CCF90199D4F8CC0075
:104B200001602846FEBD0000E0000020FEB50446FE
:104B30006069006900900198C0F3C30104F56B70CF
:104B400000EB41100069C01CC0F38F0674E04FF603
:104B5000FF71009801EA80050198C0F3C30104F5D4
:104B60006B7000EB41100069A84216D20198C0F3A7
:104B7000C30104F56B7000EB4110008A85B2002080
:104B80000290029820F0806000F180600290E0685E
:104B9000806902998843E16888610198C0F3C30184
:104BA00004F56B7000EB41100069C01CC0F38F0668
:104BB0000198C0F3C302C0F3C30304F56B7000EBAC
:104BC00043102B46C168204600F010F90198C0F34D
:104BD000C30104F56B7000EB4110C06841190198E6
:104BE000C0F3C30204F56B7000EB4210C160019882
:104BF000C0F3C30104F56B7000EB41100069411B69
:104C00000198C0F3C30204F56B7000EB4210016120
:104C10000198C0F3C30104F56B7000EB41104069CB
:104C200041190198C0F3C30204F56B7000EB421008
:104C30004161606900690090009880B2B0420ADD6D
:104C40000198C0F3C30104F56B7000EB41100069DB
:104C500000287FF47CAF0120FEBD30B585B004464E
:104C6000002000900390039820F010001030039073
:104C7000E068806903998843E1688861E068006AB8
:104C80000490049800F00F00009004F190009DF84B
:104C9000001050F82100006801900498C0F34340D0
:104CA000022806D0032878D0052877D0072873D1AA
:104CB00075E00498C0F30A10002869DD04F56B70F4
:104CC0009DF8001000EB4110C068002860D00498E7
:104CD000C0F30A1204F56B709DF8003000EB43102E
:104CE000C1682046FFF7D1F8049800F00F0104F5E1
:104CF0006B7000EB4110C0680499C1F30A110144C4
:104D0000049800F00F0204F56B7000EB4210C160D4
:104D1000049800F00F0104F56B7000EB411040693E
:104D20000499C1F30A110144049800F00F0204F53C
:104D30006B7000EB4210416104F56B709DF8001040
:104D400000EB4110456904F554709DF8001040F8DF
:104D5000215004F190009DF8001050F821000069E6
:104D600002900298C0F3C940002811DD019820F09C
:104D7000004000F100400190019820F08040019037
:104D800004F190009DF80020019950F82200016084
:104D900006E002E002E0FFE700BF00BF00BF00BF87
:104DA00000BF039820F0100010300390E068806985
:104DB00003990843E1688861012005B030BD000017
:104DC00038B5044600200090074800680168204676
:104DD0008847009820F00800083000900098E168AB
:104DE0004861012038BD0000E00000202DE9F041BD
:104DF00004460026E078B0B900270020DD1C4FEA09
:104E0000E57805EB98784FEAA80704F1D00555F846
:104E100022C000BF04E00D68CCF80050401C091D02
:104E2000B842F8D300BF3046BDE8F08113481449BA
:104E300048604FF4806048810020C8814874486110
:104E4000104808604FF480600881002088810120AC
:104E500008740D480D4948604FF480604881002077
:104E6000C881487448610A4808604FF4806008812E
:104E7000002088810120087470470000184E01202E
:104E8000004A0120184A0120305601201852012002
:104E90003052012000BFFEE70FB4054B10B503A947
:104EA000044A029800F02CF810BC5DF814FB0000D6
:104EB000056D0008EC0000200FB4084B10B504A9E4
:104EC00002AA039800F01CF8044602A9002000F092
:104ED00048FA204610BC5DF814FB0000635300083C
:104EE00002E008C8121F08C1002AFAD170477047B3
:104EF000002001E001C1121F002AFBD17047000011
:104F00002DE9FF4F8DB00F460546002606E0252807
:104F10000BD0DDE90F1290476D1C761C2878002815
:104F2000F5D111B03046BDE8F08F0024A246A1466D
:104F30000122EC4900E0044315F8013F203B02FA4E
:104F400003F00842F7D128782A2810D06FF02F02FA
:104F50002878A0F13001092914D80AEB8A0102EB64
:104F6000410144F0020400EB010A6D1CF0E701CF9F
:104F70005FEA000A03D544F40054CAF1000A44F081
:104F800002046D1C28782E2817D115F8010F44F063
:104F900004042A280ED06FF02F022878A0F13001E7
:104FA00009290AD809EB890102EB410100EB01094B
:104FB0006D1CF2E757F8049B6D1C28786C280FD005
:104FC00006DC4C2817D068280DD06A2814D104E0DC
:104FD000742810D07A280FD10DE044F400140AE0B0
:104FE00044F4801401E044F440146978814202D111
:104FF00004F580146D1C6D1C2A786E2A1FD00CDC01
:10500000632A31D004DC002A8BD0582A11D1A3E0C6
:10501000642A68D0692A0CD165E0732A2ED004DC9A
:105020006F2A73D0702A04D19BE0752A6FD0782A3A
:105030006ED01046DDE90F129047761C50E1C4F3A4
:105040000250022806D0032809D0042801CF09D035
:10505000066045E101CFF117C0E9006140E101CFF1
:1050600006803DE106703BE117F8040B8DF8000067
:1050700000208DF80100EB46012003E057F804BB47
:105080004FF0FF3061074FF0000102D40DE008F14E
:105090000101884649450FDA8045F8DB1BF8081006
:1050A0000029F4D108E008F1010188468142FADBC9
:1050B0001BF808100029F6D1DDE90F23AAEB080040
:1050C0008146214600F036F9304400EB080604E042
:1050D000DDE90F121BF8010B9047B8F10108F7D278
:1050E00021464846F7E00A21C4F302534FF0000B73
:1050F0000891022B04D001CFC117032B09D00AE07D
:10510000FF1D27F00707F7E8020108E032E01FE083
:1051100020E000B2C117042B01D140B2C117031E19
:1051200071F1000307DA4FF0000CD0EB0C006CEBD0
:1051300001012D2302E0230504D52B238DF8243013
:10514000012303E0E30701D02023F7E7984658E066
:105150000A2110E010210EE010204FF0000B089003
:105160000CE010214FF0000B44F004044FF008094C
:10517000089103E008214FF0000B0891C4F302539B
:10518000022B04D001CF0021032B06D006E0FF1D27
:1051900027F00707F7E8020103E080B2042B00D1F3
:1051A000C0B24FF0000823072BD5702A07D0DDF8D6
:1051B00020C08CF0100C5CEA0B0C05D00EE04023F4
:1051C0008DF82430012308E050EA010306D0302393
:1051D0008DF824308DF8252002239846DDF820C074
:1051E0008CF0080C5CEA0B0C0BD150EA010301D1E6
:1051F000630706D530238DF824304FF00108A9F15C
:105200000109582A04D038A20B9208AA0A920BE08E
:105210003AA2F9E75B46089AFBF713F80B9B9B5CF5
:105220000A9A521E0A92137050EA0102F2D10A98A9
:10523000ADEB000000F1200B600702D524F48034B0
:1052400001E04FF00109D94502DDA9EB0B0000E0B8
:10525000002000EB0B0141440890AAEB010AE00397
:1052600006D4DDE90F232146504600F063F80644DA
:105270004FF0000908E009A911F80900DDE90F1253
:10528000904709F10109761CC145F4DBE0030CD518
:10529000DDE90F232146504600F04CF8064404E0B7
:1052A000DDE90F1230209047761C0899481E0890BF
:1052B0000029F5DC08E00A980A990078491C0A914F
:1052C000DDE90F129047761CBBF10001ABF1010B39
:1052D000F1DC21465046DDE90F2300F019F80644C1
:1052E0006D1C1BE609280100303132333435363766
:1052F0003839616263646566000000003031323322
:1053000034353637383941424344454600000000C1
:105310002DE9F041044600251E461746880404D4B2
:1053200005E039462020B0476D1C641EF9D528469B
:10533000BDE8F0812DE9F041044600251E46904667
:10534000C80301D5302700E02027880404D505E0F4
:1053500041463846B0476D1C641EF9D52846BDE865
:10536000F0810A68531C0B601070704710B501463D
:105370000022002006E08B5C303B00EB800403EB56
:105380004400521C8B5C002BF5D110BD00B585B0DC
:1053900001210803FBF724FD0020ADF800004FF4C5
:1053A0008270ADF802000020ADF80400ADF80600F0
:1053B000ADF808004FF40070ADF80A002820ADF8F1
:1053C0000C000020ADF80E000720ADF81000694673
:1053D0000648FBF7C7FD00210448FBF7A9FD0121A2
:1053E0000248FBF7A5FD05B000BD000000300140FC
:1053F00010B500BF0120FBF789FD0028FAD0FBF7AC
:1054000091FD0446204610BD704710B500F0C8F865
:1054100000F07AF800F004F800F0EEF810BD00009B
:105420001CB501214FF49270FBF7AAFC012000F09B
:10543000C3F8022000F0C0F8032000F0BDF80420FB
:1054400000F0BAF801208DF8040000208DF8060065
:105450008DF8070003208DF805004FF48060009060
:1054600069460B48FBF780F980200090694609489F
:10547000FBF77AF94FF48070009069460548FBF716
:1054800073F90420009069460348FBF76DF91CBDD1
:105490000020024000140240000802407FB505468B
:1054A0000C4601212020FBF78BFC681E0290601E39
:1054B00080B2ADF804000020ADF80C00ADF8060095
:1054C0008DF80E0001A90F48FBF7C2FE00210D4820
:1054D000FBF788FE012211460A48FBF7AFFE0121C7
:1054E0000848FBF78EFE37208DF8000002208DF86B
:1054F00001008DF8020001208DF803006846FBF7DB
:10550000E5FB7FBD0014004070B5002016E00021CF
:1055100000EB40021E4B03EB8202516000EB4002A5
:1055200003EB8202916000EB400203EB82025170B8
:1055300000EB400203F82210411CC8B20428E6DB4D
:10554000144909684FF47A73B1FBF3F2511EB1F1BB
:10555000807F00D31BE0511E4FF0E02359615917A3
:105560000F23002907DA1C07260E0B4C01F00F054C
:105570002D1F665503E01C07250E084C655400BF1F
:1055800000214FF0E02399610721196100BF70BD30
:10559000D04901202400002018ED00E000E400E0E4
:1055A00010B5FFF743FCFBF7EDF9FAF7FAFE5421CB
:1055B0000A20FFF773FF10BD411EC8B220B94FF497
:1055C00080610A4A118310E0012803D18021084A32
:1055D00011800AE0022803D1C101054A118004E0CC
:1055E000032802D10421034A1180704700200240A1
:1055F000181402401808024010B501214020FBF7A2
:10560000CFFB0120FBF770FC10BD7047704741686D
:1056100051B14168491E416031B9012141700178A1
:10562000012901D1816841607047000070B50446CE
:105630000D46607801232A4604F1340100F046FF4C
:1056400008B1032070BD94F8321294F8330241EA95
:1056500000204AF65521884201D00220F2E794F852
:105660006D00010694F86C0041EA004194F86B006B
:1056700041EA002094F86A10084320F07F400E4968
:10568000884201D10020DDE794F88900010694F8F2
:10569000880041EA004194F8870041EA002094F82C
:1056A0008610084320F07F400349884201D1002042
:1056B000C8E70120C6E7000046415400024600E06A
:1056C000521C107810B110788842F9D110787047C8
:1056D00030B502460B4600200446014621E001EBAE
:1056E00041001D4D55F82000C8B101EB410055F8AF
:1056F00020001568A84213D101EB4100164D05EBBF
:10570000800040689568A8420AD101EB4100124D23
:1057100005EB80000089D588A84201D103E0641C14
:10572000491C0329DBD300BF032906D10CB9022B86
:1057300001D1002030BD1220FCE743B901EB41004C
:10574000054D05EB80004089B0F5807F01D1102028
:10575000F0E70020EEE70000305A01202DE9F74F76
:1057600088B0089800680190019800783038079058
:10577000079809280AD8019840783A2806D1019854
:10578000801C019008990198086001E000200790B2
:105790000021099801600798022803D30B200BB061
:1057A000BDE8F08FD249079851F820400CB90C2081
:1057B000F5E709980460207878B1607800F0BCFEC5
:1057C000804608F0010040B90A9820B108F00400B2
:1057D00008B10A20E3E70020E1E7002020700798E5
:1057E0006070607800F02EFE804608F0010008B17D
:1057F0000320D4E70A9820B108F0040008B10A2079
:10580000CDE74FF0000949462046FFF70FFF054658
:1058100000BF012D21D14FF0000BBBF1000F03D0D1
:10582000ABF1010000F0FF0B4FF4DF7000EB0B1148
:1058300004F134000F18387978B1F87A0106B87A93
:1058400041EA0041787A41EA0020397A40EA0109C8
:1058500049462046FFF7EAFE0546032D01D1012007
:105860009DE70DB10D209AE73F20015D94F84000BF
:1058700041EA0020B0F5007F01D00D208FE74A20DB
:10588000015D94F84B0041EA002ABAF1000F0ED1F5
:1058900094F85B00010694F85A0041EA004194F83C
:1058A000590041EA002094F8581040EA010AC4F86F
:1058B0001CA04420065DE670012E03D0022E01D00C
:1058C0000D206CE70AFB06FA4120005D0646A07039
:1058D00016B1701E304008B10D2060E74520015D13
:1058E00094F8460041EA00202081207A00F00F0061
:1058F00008B10D2053E74720015D94F8480041EAC4
:1059000000200690069870B994F85700010694F8A4
:10591000560041EA004194F8550041EA002094F80D
:105920005410084306904220015D94F8430041EA78
:1059300000200290029808B90D2030E702985044E8
:10594000218900EB11100590DDE90501814201D2AA
:105950000D2024E7DDE90510401AA178B0FBF1F035
:105960000490049808B90D2019E7012540F6F67156
:105970000498884200D302254FF6F67104988842B5
:1059800000D303250498801CA061C4F820900298DD
:105990004844606205984844E062032D16D120898E
:1059A00008B10D20FBE694F86300010694F862004C
:1059B00041EA004194F8610041EA002094F8601047
:1059C0000843A062A0698000039014E0208908B910
:1059D0000D20E4E6606A5044A062022D02D1A06965
:1059E000400007E0207E00F00100A16901EB4101C9
:1059F00000EB51000390E169039800F2FF10B1EB56
:105A0000502F01D20D20CAE64FF0FF302061002058
:105A1000E060032D5CD1607194F8641094F8650027
:105A200041EA0020484460616078012304F13401B8
:105A3000626900F04BFDE8BB94F8321294F833022F
:105A400041EA00204AF65521884241D13720005DC5
:105A500001063620005D41EA00413520005D41EA43
:105A6000002094F8341008432249884230D194F839
:105A70001B02010694F81A0241EA004194F8190247
:105A800041EA002094F8181208431B4988421FD1AC
:105A900094F82302010694F8220241EA004194F8A6
:105AA000210241EA002094F820120843E06094F8B3
:105AB0001F0200E00CE0010694F81E0241EA0041DA
:105AC00094F81D0241EA002094F81C12084320615A
:105AD00025700A480088401C80B208490880E08090
